:020000040800F2
:10000000000002208D290008DD280008EB280008E8
:10001000F1280008F7280008FD280008000000006B
:10002000000000000000000000000000032900089C
:1000300011290008000000001F2900082D290008D0
:10004000DD290008DD290008DD290008DD29000878
:10005000DD290008DD290008DD290008DD29000868
:10006000DD290008DD290008DD290008DD29000858
:10007000DD290008DD290008DD290008DD29000848
:10008000DD290008DD290008DD2900080000000046
:10009000000000000000000000000000DD29000852
:1000A000DD290008DD290008DD290008DD29000818
:1000B000DD290008DD290008DD290008DD29000808
:1000C000DD290008DD290008DD290008DD290008F8
:1000D000DD290008392900084D290008000000002A
:1000E000DD290008DD290008DD29000800000000E6
:1000F000000000000000000000000000DD290008F2
:1001000000000000DD290008DD290008DD290008C5
:1001100000000000000000000000000000000000DF
:10012000DD290008DD290008DD290008DD29000897
:10013000DD290008000000000000000000000000B1
:10014000000000000000000000000000DD290008A1
:10015000DD290008DD290008DD290008DD29000867
:10016000DD290008DD290008000000000000000073
:10017000000000000000000000000000000000007F
:1001800000000000DD290008000000000000000061
:08019000DD290008DD2900084B
:1001980010B5054C237833B9044B13B10448AFF3B9
:1001A80000800123237010BD0C0000200000000017
:1001B800382A000808B5034B1BB103490348AFF3BD
:1001C800008008BD0000000010000020382A000848
:1001D80053B94AB9002908BF00281CBF4FF0FF31A6
:1001E8004FF0FF3000F072B9ADF1080C6DE904CEA4
:1001F80000F006F8DDF804E0DDE9022304B07047FA
:100208002DE9F047089E04468846002B4BD18A42C8
:10021800154667D9B2FA82F24AB1C2F1200701FA4B
:1002280002F320FA07F7954047EA030894404FEA9B
:10023800154E230CB8FBFEF71FFA85FC0EFB17883A
:1002480043EA084307FB0CF1994209D9EB1807F177
:10025800FF3080F01B81994240F21881023F2B4405
:100268005B1AA4B2B3FBFEF00EFB103344EA03445E
:1002780000FB0CFCA44509D92C1900F1FF3380F0D0
:100288000781A44540F2048102382C4440EA074023
:10029800A4EB0C0400271EB1D4400023C6E9004398
:1002A8003946BDE8F0878B4209D9002E00F0EB8073
:1002B8000027C6E9000138463946BDE8F087B3FA99
:1002C80083F7002F47D18B4202D3824200F2FA8093
:1002D800841A61EB030301209846002EE0D0C6E99A
:1002E8000048DDE702B9FFDEB2FA82F2002A40F0E8
:1002F8008F80491B4FEA154E1FFA85F80127B1FB7D
:10030800FEFC230C0EFB1C1143EA014308FB0CF115
:10031800994207D9EB180CF1FF3002D2994200F24A
:10032800CD808446591AA3B2B1FBFEF00EFB10141F
:1003380043EA044408FB00F8A04507D92C1900F14A
:10034800FF3302D2A04500F2B6801846A4EB080499
:1003580040EA0C409FE7C7F1200CBB4022FA0CFE94
:100368004EEA030E01FA07F420FA0CF521FA0CF311
:100378004FEA1E482543B3FBF8F92C0C08FB193348
:100388001FFA8EFA44EA034309FB0AF49C4202FA74
:1003980007F200FA07F10BD91EEB030309F1FF304E
:1003A80080F087809C4240F28480A9F1020973445E
:1003B8001B1BADB2B3FBF8F008FB103345EA03444E
:1003C80000FB0AFAA24508D91EEB040400F1FF332A
:1003D8006BD2A24569D90238744440EA0940A0FBAF
:1003E8000289A4EB0A044C45C2464B4654D351D06B
:1003F800002E69D0B1EB0A0564EB030404FA0CFC87
:10040800FD40FC404CEA0505C6E90054002747E7D3
:10041800C2F1200320FA03F7954001FA02F021FA0D
:1004280003F34FEA154E3843010CB3FBFEF71FFAEE
:1004380085F80EFB173341EA034107FB08F38B42AB
:1004480004FA02F407D9691807F1FF3C2FD28B424E
:100458002DD9023F2944CB1A81B2B3FBFEF00EFB23
:10046800103341EA034100FB08F38B4207D96918AE
:1004780000F1FF3C17D28B4215D902382944C91A1A
:1004880040EA07473BE73746304609E70746E7E6CD
:100498001846FBE64145ABD2B8EB020A69EB0E02FF
:1004A80001381346A4E76046E9E7184695E767462A
:1004B800D1E781467CE702382C4447E7ACF1020CCF
:1004C8002B442FE7384608E73746E9E6704700BF70
:1004D80080B500AF0E4B1B680D4A43F400731360E0
:1004E8000B4B1B680A4A43F480631360084B1B6874
:1004F800074A43F480731360032000F04DF900208D
:1005080000F008F802F032F90023184680BD00BF59
:10051800003C024080B582B000AF7860124B1A6888
:10052800124B1B7819464FF47A73B3FBF1F3B2FB05
:10053800F3F3184600F065F90346002B01D00123B8
:100548000EE07B680F2B0AD8002279684FF0FF3045
:1005580000F02DF9064A7B681360002300E00123B0
:1005680018460837BD4680BD08000020040000205A
:100578000000002080B400AF064B1B781A46064BDB
:100588001B681344044A136000BFBD465DF8047B32
:10059800704700BF040000202C00002080B400AF8A
:1005A800034B1B681846BD465DF8047B704700BFC7
:1005B8002C00002080B584B000AF7860FFF7EEFF14
:1005C800B8607B68FB60FB68B3F1FF3F05D0094B5F
:1005D8001B781A46FB681344FB6000BFFFF7DEFF79
:1005E8000246BB68D31AFA689A42F7D800BF103798
:1005F800BD4680BD0400002080B485B000AF78609F
:100608007B6803F00703FB600C4BDB68BB60BA68D0
:100618004FF6FF031340BB60FB681A02BB68134325
:1006280043F0BF6343F40033BB60044ABB68D36044
:1006380000BF1437BD465DF8047B704700ED00E04D
:1006480080B400AF044BDB681B0A03F007031846AD
:10065800BD465DF8047B704700ED00E080B483B0D0
:1006680000AF0346FB7197F90730002B0BDBFB79D2
:1006780003F01F02074997F907305B09012000FAC8
:1006880002F241F8232000BF0C37BD465DF8047B19
:10069800704700BF00E100E080B483B000AF0346BC
:1006A8003960FB7197F90730002B0ADB3B68DAB237
:1006B8000C4997F907301201D2B20B4483F8002392
:1006C8000AE03B68DAB20849FB7903F00F03043B00
:1006D8001201D2B20B441A7600BF0C37BD465DF842
:1006E800047B704700E100E000ED00E080B489B0D1
:1006F80000AFF860B9607A60FB6803F00703FB613C
:10070800FB69C3F10703042B28BF0423BB61FB6902
:100718000433062B02D9FB69033B00E000237B610D
:100728004FF0FF32BB6902FA03F3DA43BB681A40A1
:100738007B699A404FF0FF317B6901FA03F3D94393
:100748007B680B40134318462437BD465DF8047B8D
:100758007047000080B582B000AF78607B68013BCD
:10076800B3F1807F01D301230FE00A4A7B68013B84
:1007780053600F214FF0FF30FFF78EFF054B00222B
:100788009A60044B07221A60002318460837BD46B2
:1007980080BD00BF10E000E080B582B000AF786097
:1007A8007868FFF729FF00BF0837BD4680BD80B5D0
:1007B80086B000AF0346B9607A60FB7300237B61A3
:1007C800FFF73EFF78617A68B9687869FFF78EFFAE
:1007D800024697F90F3011461846FFF75DFF00BF34
:1007E8001837BD4680BD80B582B000AF0346FB71A7
:1007F80097F907301846FFF731FF00BF0837BD46A5
:1008080080BD80B582B000AF78607868FFF7A2FF3E
:10081800034618460837BD4680BD80B483B000AF94
:1008280078607B6893F83530DBB2022B04D07B68A4
:1008380080225A6501230CE07B68052283F8352065
:100848007B681B681A687B681B6822F001021A60C3
:10085800002318460C37BD465DF8047B704700003E
:1008680080B489B000AF7860396000237B610023D1
:100878003B610023BB610023FB6159E10122FB6955
:1008880002FA03F37B613B681B687A6913403B619A
:100898003A697B699A4240F048813B685B68012B62
:1008A8000BD03B685B68022B07D03B685B68112B59
:1008B80003D03B685B68122B30D17B689B68BB61B7
:1008C800FB695B00032202FA03F3DB43BA691340B6
:1008D800BB613B68DA68FB695B0002FA03F3BA693B
:1008E8001343BB617B68BA699A607B685B68BB61CC
:1008F8000122FB6902FA03F3DB43BA691340BB61C7
:100908003B685B681B0903F00102FB6902FA03F309
:10091800BA691343BB617B68BA695A607B68DB6854
:10092800BB61FB695B00032202FA03F3DB43BA698C
:100938001340BB613B689A68FB695B0002FA03F3EA
:10094800BA691343BB617B68BA69DA603B685B6864
:10095800022B03D03B685B68122B23D1FB69DA08B2
:100968007B68083253F82230BB61FB6903F0070348
:100978009B000F2202FA03F3DB43BA691340BB6101
:100988003B681A69FB6903F007039B0002FA03F34B
:10099800BA691343BB61FB69DA087B680832B96935
:1009A80043F822107B681B68BB61FB695B0003226C
:1009B80002FA03F3DB43BA691340BB613B685B6827
:1009C80003F00302FB695B0002FA03F3BA691343FD
:1009D800BB617B68BA691A603B685B6803F0805347
:1009E800002B00F0A2800023FB60564B5B6C554A3D
:1009F80043F480435364534B5B6C03F48043FB60C4
:100A0800FB68514AFB699B08023352F82330BB61EB
:100A1800FB6903F003039B000F2202FA03F3DB4395
:100A2800BA691340BB617B68484A934219D07B6816
:100A3800474A934213D07B68464A93420DD07B685D
:100A4800454A934207D07B68444A934201D1042324
:100A580008E0072306E0032304E0022302E0012361
:100A680000E00023FA6902F0030292009340BA6999
:100A78001343BB613449FB699B080233BA6941F8E7
:100A88002320374B1B68BB613B69DB43BA691340C2
:100A9800BB613B685B6803F48033002B03D0BA6901
:100AA8003B691343BB612E4ABB6913602C4B5B68DF
:100AB800BB613B69DB43BA691340BB613B685B6858
:100AC80003F40033002B03D0BA693B691343BB61BD
:100AD800234ABB695360224B9B68BB613B69DB437C
:100AE800BA691340BB613B685B6803F48013002B51
:100AF80003D0BA693B691343BB61194ABB69936068
:100B0800174BDB68BB613B69DB43BA691340BB61C8
:100B18003B685B6803F40013002B03D0BA693B6998
:100B28001343BB610E4ABB69D360FB690133FB61A8
:100B3800FB690F2B7FF6A2AE00BF2437BD465DF8D8
:100B4800047B704700380240003801400000024032
:100B58000004024000080240000C0240001002405D
:100B6800003C014080B483B000AF78600B467B80C6
:100B780013467B707B78002B03D07A887B689A6158
:100B880003E07B881A047B689A6100BF0C37BD4676
:100B98005DF8047B704780B483B000AF78600B4683
:100BA8007B807B685A697B881A407B889A4204D18B
:100BB8007B881A047B689A6102E07A887B689A616C
:100BC80000BF0C37BD465DF8047B704780B586B022
:100BD80000AF78607B68002B01D101235BE27B6862
:100BE8001B6803F00103002B75D0A34B9B6803F02F
:100BF8000C03042B0CD0A04B9B6803F00C03082BB0
:100C080012D19D4B5B6803F48003B3F5800F0BD1C1
:100C1800994B1B6803F40033002B5BD07B685B683F
:100C2800002B57D1012336E27B685B68B3F5803F20
:100C380006D1914B1B68904A43F4803313601DE042
:100C48007B685B68B3F5A02F0CD18B4B1B688A4A75
:100C580043F480231360884B1B68874A43F480332E
:100C680013600BE0844B1B68834A23F480331360C2
:100C7800814B1B68804A23F4802313607B685B6880
:100C8800002B13D0FFF78AFC386108E0FFF786FCD9
:100C980002463B69D31A642B01D90323FBE1764B47
:100CA8001B6803F40033002BF0D014E0FFF776FC48
:100CB800386108E0FFF772FC02463B69D31A642BDF
:100CC80001D90323E7E16C4B1B6803F40033002BC5
:100CD800F0D100E000BF7B681B6803F00203002B23
:100CE80063D0654B9B6803F00C03002B0BD0624B61
:100CF8009B6803F00C03082B1CD15F4B5B6803F463
:100D08008003002B16D15C4B1B6803F00203002BF9
:100D180005D07B68DB68012B01D00123BBE1564B72
:100D28001B6823F0F8027B681B69DB0052491343F8
:100D38000B603AE07B68DB68002B20D04F4B012228
:100D48001A60FFF72BFC386108E0FFF727FC024622
:100D58003B69D31A022B01D903239CE1464B1B683C
:100D680003F00203002BF0D0434B1B6823F0F8027A
:100D78007B681B69DB00404913430B6015E03F4B60
:100D880000221A60FFF70AFC386108E0FFF706FC4A
:100D980002463B69D31A022B01D903237BE1364B68
:100DA8001B6803F00203002BF0D17B681B6803F07B
:100DB8000803002B30D07B685B69002B16D0304BC2
:100DC80001221A60FFF7EAFB386108E0FFF7E6FB4B
:100DD80002463B69D31A022B01D903235BE1264B58
:100DE8005B6F03F00203002BF0D015E0244B0022C8
:100DF8001A60FFF7D3FB386108E0FFF7CFFB024624
:100E08003B69D31A022B01D9032344E11A4B5B6FC8
:100E180003F00203002BF0D17B681B6803F0040386
:100E2800002B00F0A0800023FB75134B1B6C03F014
:100E38008053002B0FD10023BB600F4B1B6C0E4A55
:100E480043F0805313640C4B1B6C03F08053BB605E
:100E5800BB680123FB750B4B1B6803F48073002BE5
:100E680021D1084B1B68074A43F480731360FFF7CE
:100E780095FB386111E000BF00380240000047428E
:100E8800800E474200700040FFF788FB02463B692E
:100E9800D31A022B01D90323FDE0814B1B6803F40D
:100EA8008073002BF0D07B689B68012B06D17D4BAB
:100EB8001B6F7C4A43F0010313671CE07B689B6847
:100EC800052B0CD1774B1B6F764A43F0040313674D
:100ED800744B1B6F734A43F0010313670BE0714BAC
:100EE8001B6F704A23F0010313676E4B1B6F6D4A2B
:100EF80023F0040313677B689B68002B15D0FFF76A
:100F08004DFB38610AE0FFF749FB02463B69D31AFB
:100F180041F28832934201D90323BCE0614B1B6F35
:100F280003F00203002BEED014E0FFF737FB386123
:100F38000AE0FFF733FB02463B69D31A41F28832D5
:100F4800934201D90323A6E0564B1B6F03F002031B
:100F5800002BEED1FB7D012B05D1524B1B6C514A66
:100F680023F0805313647B689B69002B00F0928008
:100F78004C4B9B6803F00C03082B5CD07B689B6987
:100F8800022B41D1484B00221A60FFF707FB38615A
:100F980008E0FFF703FB02463B69D31A022B01D98D
:100FA800032378E03F4B1B6803F00073002BF0D15C
:100FB8007B68DA697B681B6A1A437B685B6A9B01FA
:100FC8001A437B689B6A5B08013B1B041A437B68D6
:100FD800DB6A1B06334913434B60334B01221A600B
:100FE800FFF7DCFA386108E0FFF7D8FA02463B69F8
:100FF800D31A022B01D903234DE02A4B1B6803F0B7
:101008000073002BF0D045E0274B00221A60FFF751
:10101800C5FA386108E0FFF7C1FA02463B69D31AFE
:10102800022B01D9032336E01E4B1B6803F0007323
:10103800002BF0D12EE07B689B69012B01D10123A5
:1010480029E0184B5B68FB60FB6803F480027B684F
:10105800DB699A421CD1FB6803F03F027B681B6A7C
:101068009A4215D1FA6847F6C07313407A68526AF3
:1010780093420DD1FB6803F440327B689B6A9A4225
:1010880006D1FB6803F070627B68DB6A9A4201D084
:10109800012300E0002318461837BD4680BD00BF75
:1010A80000700040003802406000474280B584B0BC
:1010B80000AF786039607B68002B01D10123CCE058
:1010C800684B1B6803F00F033A689A420CD9654BCA
:1010D8003A68D2B21A70634B1B6803F00F033A6880
:1010E8009A4201D00123B8E07B681B6803F0020331
:1010F800002B20D07B681B6803F00403002B05D06D
:10110800594B9B68584A43F4E05393607B681B68CB
:1011180003F00803002B05D0534B9B68524A43F455
:1011280060439360504B9B6823F0F0027B689B6898
:101138004D4913438B607B681B6803F00103002B48
:1011480044D07B685B68012B07D1474B1B6803F4CD
:101158000033002B19D101237FE07B685B68022BE9
:1011680003D07B685B68032B07D13F4B1B6803F0F8
:101178000073002B09D101236FE03B4B1B6803F080
:101188000203002B01D1012367E0374B9B6823F052
:1011980003027B685B68344913438B60FFF7FEF9F1
:1011A800F8600AE0FFF7FAF90246FB68D31A41F241
:1011B8008832934201D903234FE02B4B9B6803F0FD
:1011C8000C027B685B689B009A42EBD1254B1B683D
:1011D80003F00F033A689A420CD2224B3A68D2B213
:1011E8001A70204B1B6803F00F033A689A4201D02B
:1011F800012332E07B681B6803F00403002B08D04E
:10120800194B9B6823F4E0527B68DB68164913434B
:101218008B607B681B6803F00803002B09D0124B16
:101228009B6823F460427B681B69DB000E4913430B
:101238008B6000F021F801460B4B9B681B0903F0FB
:101248000F030A4AD35C21FA03F3094A1360094BD6
:101258001B681846FFF75EF9002318461037BD468D
:1012680080BD00BF003C024000380240602A0008F0
:101278000800002000000020F0B585B000AF002372
:101288007B600023FB6000233B600023BB60504B66
:101298009B6803F00C03042B07D0082B08D0002B05
:1012A80040F08D804B4BBB608CE04B4BBB6089E0C2
:1012B800474B5B6803F03F037B60454B5B6803F477
:1012C8008003002B23D0424B5B689B094FF000043E
:1012D80040F2FF114FF0000203EA010504EA02069A
:1012E8003D4A02FB06F1002202FB05F20A443A4994
:1012F800A5FB0101531819467B684FF000041A46F4
:101308002346FEF765FF03460C46FB6049E0304B79
:101318005B689B094FF0000440F2FF114FF0000298
:1013280003EA010504EA0206294632464FF00003A3
:101338004FF00004540144EAD1644B011946224697
:10134800491B62EB06024FF000034FF000049401C2
:1013580044EA91648B015B1A64EB02044FF00001CC
:101368004FF00002E20042EA5372D9000B461446DD
:101378005B1944EB06044FF000014FF00002A20293
:1013880042EA935299020B461446184621467B6856
:101398004FF000041A462346FEF71AFF03460C4690
:1013A800FB600B4B5B681B0C03F0030301335B0012
:1013B8003B60FA683B68B2FBF3F3BB6002E0054BA5
:1013C800BB6000BFBB6818461437BD46F0BD00BF00
:1013D800003802400024F40040787D0180B400AF5A
:1013E800034B1B681846BD465DF8047B704700BF79
:1013F8000800002080B500AFFFF7F0FF0146054B5D
:101408009B689B0A03F00703034AD35C21FA03F3A2
:10141800184680BD00380240702A000880B500AF29
:10142800FFF7DCFF0146054B9B685B0B03F00703E6
:10143800034AD35C21FA03F3184680BD0038024002
:10144800702A000880B582B000AF78607B68002BF6
:1014580001D101233FE07B6893F83930DBB2002BE0
:1014680006D17B68002283F83820786801F0A6F955
:101478007B68242283F839207B681B68DA687B68DC
:101488001B6822F40052DA60786800F03DFC7B6843
:101498001B681A697B681B6822F490421A617B6892
:1014A8001B685A697B681B6822F02A025A617B68AC
:1014B8001B68DA687B681B6842F40052DA607B6854
:1014C8000022DA637B68202283F839207B68202297
:1014D80083F83A20002318460837BD4680BD80B5FA
:1014E80088B002AFF860B9603B601346FB80002308
:1014F8007B61FB6893F83930DBB2202B40F08380A6
:10150800BB68002B02D0FB88002B01D101237BE0B4
:10151800FB6893F83830012B01D1022374E0FB6893
:10152800012283F83820FB680022DA63FB68212255
:1015380083F83920FFF732F87861FB68FA889A84D3
:10154800FB68FA88DA84FB68002283F8382042E0D6
:10155800FB68DB8C9BB2013B9AB2FB68DA84FB68C0
:101568009B68B3F5805F22D13B6800937B690022BA
:101578008021F86800F05CFA0346002B01D00323B1
:1015880042E0BB683B613B691B881A46FB681B68E5
:10159800C2F308025A60FB681B69002B03D1BB68C1
:1015A8000233BB6017E0BB680133BB6013E03B68E4
:1015B80000937B6900228021F86800F039FA03461D
:1015C800002B01D003231FE0BB685A1CBA601A78AD
:1015D800FB681B685A60FB68DB8C9BB2002BB7D199
:1015E8003B6800937B6900224021F86800F020FAEC
:1015F8000346002B01D0032306E0FB68202283F872
:101608003920002300E0022318461837BD4680BD64
:1016180080B588B002AFF860B9603B601346FB80C4
:1016280000237B61FB6893F83A30DBB2202B40F053
:101638009080BB68002B02D0FB88002B01D10123CE
:1016480088E0FB6893F83830012B01D1022381E050
:10165800FB68012283F83820FB680022DA63FB6804
:10166800222283F83A20FEF799FF7861FB68FA880E
:101678009A85FB68FA88DA85FB68002283F83820A7
:101688005CE0FB68DB8D9BB2013B9AB2FB68DA85B4
:10169800FB689B68B3F5805F2BD13B6800937B693F
:1016A80000222021F86800F0C3F90346002B01D07E
:1016B80003234FE0BB683B61FB681B69002B0CD11F
:1016C800FB681B685B689BB2C3F308039AB23B696B
:1016D8001A80BB680233BB6030E0FB681B685B683C
:1016E8009BB2DBB29AB23B691A80BB680133BB601C
:1016F80024E03B6800937B6900222021F86800F011
:1017080097F90346002B01D0032323E0FB681B69EC
:10171800002B08D1FB681B685968BB685A1CBA6063
:10172800CAB21A700AE0FB681B685B68DAB2BB6869
:10173800591CB96002F07F02D2B21A70FB68DB8DC7
:101748009BB2002B9DD1FB68202283F83A2000230E
:1017580000E0022318461837BD4680BD80B485B026
:1017680000AFF860B9601346FB80FB6893F83A3025
:10177800DBB2202B40D1BB68002B02D0FB88002BAA
:1017880001D1012339E0FB6893F83830012B01D1EE
:10179800022332E0FB68012283F83820FB68BA682C
:1017A8009A62FB68FA889A85FB68FA88DA85FB688A
:1017B8000022DA63FB68222283F83A20FB680022C1
:1017C80083F83820FB681B68DA68FB681B6842F4FA
:1017D8008072DA60FB681B685A69FB681B6842F014
:1017E80001025A61FB681B68DA68FB681B6842F0F3
:1017F8002002DA60002300E0022318461437BD46B1
:101808005DF8047B7047000080B588B000AF786051
:101818007B681B681B68FB617B681B68DB68BB61B6
:101828007B681B685B697B6100233B610023FB606D
:10183800FB6903F00F033B613B69002B0DD1FB698A
:1018480003F02003002B08D0BB6903F02003002B12
:1018580003D0786800F0D6F9D1E03B69002B00F09E
:10186800B0807B6903F00103002B05D1BB6903F449
:101878009073002B00F0A580FB6903F00103002B97
:101888000AD0BB6903F48073002B05D07B68DB6B3F
:1018980043F001027B68DA63FB6903F00403002B61
:1018A8000AD07B6903F00103002B05D07B68DB6B52
:1018B80043F002027B68DA63FB6903F00203002B42
:1018C8000AD07B6903F00103002B05D07B68DB6B32
:1018D80043F004027B68DA63FB6903F00803002B1A
:1018E8000FD0BB6903F02003002B04D17B6903F000
:1018F8000103002B05D07B68DB6B43F008027B6893
:10190800DA637B68DB6B002B78D0FB6903F020037C
:10191800002B07D0BB6903F02003002B02D07868A6
:1019280000F070F97B681B685B6903F04003402B8B
:101938000CBF01230023DBB2FB607B68DB6B03F089
:101948000803002B02D1FB68002B31D0786800F027
:10195800B9F87B681B685B6903F04003402B23D10F
:101968007B681B685A697B681B6822F040025A61D1
:101978007B685B6B002B13D07B685B6B214A1A6515
:101988007B685B6B1846FEF748FF0346002B16D0B2
:101998007B685B6B1B6D7A68526B104698470EE04C
:1019A800786800F03BF80AE0786800F037F806E05D
:1019B800786800F033F87B680022DA631EE000BF25
:1019C8001CE0FB6903F08003002B08D0BB6903F01F
:1019D8008003002B03D0786800F0A6F80FE0FB69BD
:1019E80003F04003002B0AD0BB6903F04003002B2F
:1019F80005D0786800F0EEF800BF00E000BF20379F
:101A0800BD4680BD091B000880B483B000AF786074
:101A180000BF0C37BD465DF8047B704780B483B0C7
:101A280000AF786000BF0C37BD465DF8047B704797
:101A380080B584B000AFF860B9603B601346FB71B5
:101A48002CE0BB69B3F1FF3F28D0BB69002B07D05E
:101A5800FEF7A4FD02463B68D31ABA699A421DD222
:101A6800FB681B68DA68FB681B6822F4D072DA60CE
:101A7800FB681B685A69FB681B6822F001025A61FF
:101A8800FB68202283F83920FB68202283F83A205B
:101A9800FB68002283F8382003230FE0FB681B68EB
:101AA8001A68BB681340BA689A420CBF0123002326
:101AB800DBB21A46FB799A42C3D000231846103786
:101AC800BD4680BD80B483B000AF78607B681B687A
:101AD800DA687B681B6822F49072DA607B681B689E
:101AE8005A697B681B6822F001025A617B682022D0
:101AF80083F83A2000BF0C37BD465DF8047B704779
:101B080080B584B000AF78607B689B6BFB60FB6836
:101B18000022DA85FB680022DA84F868FFF77EFF86
:101B280000BF1037BD4680BD80B485B000AF786077
:101B38007B6893F83930DBB2212B44D17B689B68F2
:101B4800B3F5805F1AD17B681B6AFB60FB681B8852
:101B58001A467B681B68C2F308025A607B681B69D7
:101B6800002B05D17B681B6A9A1C7B681A620EE001
:101B78007B681B6A5A1C7B681A6208E07B681B6AD0
:101B8800591C7A6811621A787B681B685A607B68EE
:101B9800DB8C9BB2013B9BB27A681946D184002B3F
:101BA8000FD17B681B68DA687B681B6822F08002AB
:101BB800DA607B681B68DA687B681B6842F0400261
:101BC800DA60002300E0022318461437BD465DF8AA
:101BD800047B704780B582B000AF78607B681B6873
:101BE800DA687B681B6822F04002DA607B68202292
:101BF80083F839207868FFF707FF0023184608376D
:101C0800BD4680BD80B584B000AF78607B6893F82E
:101C18003A30DBB2222B71D17B689B68B3F5805FC9
:101C280023D17B689B6AFB607B681B69002B0ED104
:101C38007B681B685B689BB2C3F308039AB2FB68B6
:101C48001A807B689B6A9A1C7B689A6229E07B6889
:101C58001B685B689BB2DBB29AB2FB681A807B6830
:101C68009B6A5A1C7B689A621BE07B681B69002B85
:101C78000AD17B681B6858687B689B6A591C7A681C
:101C88009162C2B21A700CE07B681B685B68DAB2BA
:101C98007B689B6A581C7968886202F07F02D2B21E
:101CA8001A707B68DB8D9BB2013B9BB27A68194640
:101CB800D185002B20D17B681B68DA687B681B689C
:101CC80022F02002DA607B681B68DA687B681B6890
:101CD80022F48072DA607B681B685A697B681B682B
:101CE80022F001025A617B68202283F83A20786842
:101CF80000F0B8FB002302E0002300E002231846AE
:101D08001037BD4680BD00002DE9F04F85B000AF0B
:101D180078607B681B681B6923F440517B68DA682C
:101D28007B681B680A431A617B689A687B681B6931
:101D38001A437B685B691A437B68DB691343FB6062
:101D48007B681B68DB6823F4164323F00C037A686E
:101D58001268F9680B43D3607B681B685B6923F4DE
:101D680040717B689A697B681B680A435A617B6883
:101D7800DB69B3F5004F40F08B817B681B68C14A73
:101D8800934205D07B681B68BF4A934240F0BD80F0
:101D9800FFF744FBB860BB681D464FF00006A84635
:101DA800B14618EB080349EB09049846A14618EB1D
:101DB800050849EB06094FF000014FF000024FEA11
:101DC800C90242EA58724FEAC8018846914618EBA0
:101DD800050049EB06017B685B681D464FF000066D
:101DE8006B1946EB06041A462346FEF7F1F903463B
:101DF8000C461A46A54BA3FB02235B094FEA0318BE
:101E0800BB681D464FF00006A946B24619EB090308
:101E18004AEB0A049946A24619EB05094AEB060A59
:101E28004FF000014FF000024FEACA0242EA59722D
:101E38004FEAC9018946924619EB05004AEB0601AB
:101E48007B685B681D464FF000066B1946EB06047D
:101E58001A462346FEF7BCF903460C461A468B4B36
:101E6800A3FB02135B09642101FB03F3D31ADB0014
:101E78003233864AA2FB03235B095B0003F4F87341
:101E88009844BB681D464FF00006A946B24619EBB8
:101E980009034AEB0A049946A24619EB05094AEBDD
:101EA800060A4FF000014FF000024FEACA0242EA68
:101EB80059724FEAC9018946924619EB05004AEB67
:101EC80006017B685B681D464FF000066B1946EB00
:101ED80006041A462346FEF77BF903460C461A46C3
:101EE8006A4BA3FB02135B09642101FB03F3D31ABA
:101EF800DB003233654AA2FB03235B0903F00702C8
:101F08007B681B6842449A606FE2FFF773FAB86017
:101F1800BB681D464FF00006A846B14618EB0803FB
:101F280049EB09049846A14618EB050849EB060950
:101F38004FF000014FF000024FEAC90242EA58721E
:101F48004FEAC8018846914618EB050049EB06019F
:101F58007B685B681D464FF000066B1946EB06046C
:101F68001A462346FEF734F903460C461A46474BF1
:101F7800A3FB02235B094FEA0318BB681D464FF019
:101F88000006A946B24619EB09034AEB0A0499462A
:101F9800A24619EB05094AEB060A4FF000014FF07B
:101FA80000024FEACA0242EA59724FEAC901894659
:101FB800924619EB05004AEB06017B685B681D46F3
:101FC8004FF000066B1946EB06041A462346FEF747
:101FD800FFF803460C461A462C4BA3FB02135B0979
:101FE800642101FB03F3D31ADB003233274AA2FB37
:101FF80003235B095B0003F4F8739844BB681D4630
:102008004FF00006A946B24619EB09034AEB0A0449
:102018009946A24619EB05094AEB060A4FF000015A
:102028004FF000024FEACA0242EA59724FEAC90168
:102038008946924619EB05004AEB06017B685B6806
:102048001D464FF000066B1946EB06041A46234658
:10205800FEF7BEF803460C461A460C4BA3FB0213C8
:102068005B09642101FB03F3D31ADB003233074A0F
:10207800A2FB03235B0903F007027B681B68424449
:102088009A60B2E100100140001401401F85EB5135
:102098007B681B68D74A934205D07B681B68D64A81
:1020A800934240F0D180FFF7B9F9B860BB689A460F
:1020B8004FF0000BD046D94618EB080349EB09044A
:1020C8009846A14618EB0A0849EB0B094FF00001A6
:1020D8004FF000024FEAC90242EA58724FEAC801BB
:1020E800884691461AEB08054BEB09067B685B6846
:1020F80019464FF000024FF000034FF0000494001F
:1021080044EA91748B001A46234628463146FEF766
:102118005FF803460C461A46B84BA3FB02235B093B
:102128004FEA0318BB689B464FF0000CD946E246BD
:1021380019EB09034AEB0A049946A24619EB0B0965
:102148004AEB0C0A4FF000014FF000024FEACA02B6
:1021580042EA59724FEAC901894692461BEB0905C2
:102168004CEB0A067B685B6819464FF000024FF09B
:1021780000034FF00004940044EA91748B001A465F
:10218800234628463146FEF723F803460C461A46EE
:102198009A4BA3FB02135B09642101FB03F3D31AD7
:1021A8001B013233954AA2FB03235B0903F0F003BA
:1021B8009844BB689B464FF0000CD946E24619EBA1
:1021C80009034AEB0A049946A24619EB0B094AEBA4
:1021D8000C0A4FF000014FF000024FEACA0242EA2F
:1021E80059724FEAC901894692461BEB09054CEB27
:1021F8000A067B685B6819464FF000024FF000033F
:102208004FF00004940044EA91748B001A46234668
:1022180028463146FDF7DCFF03460C461A46774B45
:10222800A3FB02135B09642101FB03F3D31A1B010F
:102238003233724AA2FB03235B0903F00F027B6867
:102248001B6842449A60D0E0FFF7D4F8B860BB68D6
:102258009A464FF0000BD046D94618EB080349EBD5
:1022680009049846A14618EB0A0849EB0B094FF0F8
:1022780000014FF000024FEAC90242EA58724FEAE1
:10228800C801884691461AEB08054BEB09067B689E
:102298005B6819464FF000024FF000034FF000044E
:1022A800940044EA91748B001A4623462846314626
:1022B800FDF78EFF03460C461A46504BA3FB02233C
:1022C8005B094FEA0318BB689B464FF0000CD946E0
:1022D800E24619EB09034AEB0A049946A24619EBB0
:1022E8000B094AEB0C0A4FF000014FF000024FEACD
:1022F800CA0242EA59724FEAC901894692461BEB63
:1023080009054CEB0A067B685B6819464FF000022A
:102318004FF000034FF00004940044EA91748B00DE
:102328001A46234628463146FDF752FF03460C4617
:102338001A46324BA3FB02135B09642101FB03F32A
:10234800D31A1B0132332D4AA2FB03235B0903F086
:10235800F0039844BB689B464FF0000CD946E24610
:1023680019EB09034AEB0A049946A24619EB0B0933
:102378004AEB0C0A4FF000014FF000024FEACA0284
:1023880042EA59724FEAC901894692461BEB090590
:102398004CEB0A067B685B6819464FF000024FF069
:1023A80000034FF00004940044EA91748B001A462D
:1023B800234628463146FDF70BFF03460C461A46CE
:1023C8000E4BA3FB02135B09642101FB03F3D31A31
:1023D8001B013233094AA2FB03235B0903F00F02F6
:1023E8007B681B6842449A60FFE700BF1437BD460C
:1023F800BDE8F08F00100140001401401F85EB512B
:1024080080B500AFFEF764F800F0A8F800F064F9B2
:1024180000F00EF900F036F901220C490C48FFF7DC
:102428009DF901220B490C48FFF798F920210B4828
:10243800FEF7B1FB4FF47A73282209490448FFF7E5
:102448004EF84FF47A70FEF7B5F8EFE73800002041
:102458007800002034000020E40000200000024042
:10246800BC00002080B584B000AF78607B681B6832
:10247800314A93425CD1314B1B68002B0CD10023AD
:10248800FB7306E0FB7B2E4A0021D154FB7B013312
:10249800FB73FB7B632BF5D92A4B1B78522B1FD17F
:1024A8004FF6FF73082228492848FFF7B1F8264B52
:1024B8001B78302B0AD14FF47A730522244923481C
:1024C800FFF70DF81D4B00221A6009E04FF47A73EC
:1024D800062220491D48FFF702F8184B00221A600F
:1024E800184B1B780A2B18D0164B1B78522B14D07C
:1024F800124B1B685A1C11490A60124A1178104A7B
:10250800D154104B1B78BB73BB7B19464FF6FF7336
:1025180001220E48FEF7E3FF05E0084B00221A608F
:102528000D4B01221A70012206490848FFF716F9D7
:1025380000BF1037BD4680BD0010014028000020B4
:10254800BC000020380000206C000020780000202B
:10255800502A0008582A00083000002080B594B09E
:1025680000AF07F1200330220021184600F058FA86
:1025780007F10C0300221A605A609A60DA601A6147
:102588000023BB60284B1B6C274A43F0805313641D
:10259800254B1B6C03F08053BB60BB6800237B603A
:1025A800224B1B68214A43F4404313601F4B1B68AE
:1025B80003F440437B607B6802233B620123FB6298
:1025C80010233B630223BB630023FB6310233B649C
:1025D8004FF4A8737B640423BB640423FB6407F1F2
:1025E80020031846FEF7F2FA0346002B01D000F04C
:1025F800B5F80F23FB6002233B6100237B614FF496
:102608008053BB610023FB6107F10C0302211846CC
:10261800FEF74CFD0346002B01D000F09FF800BFE9
:102628005037BD4680BD00BF0038024000700040F2
:1026380080B500AF114B124A1A60104B4FF4E132CB
:102648005A600E4B00229A600C4B0022DA600B4B4A
:1026580000221A61094B0C225A61084B00229A6128
:10266800064B0022DA610548FEF7ECFE0346002B14
:1026780001D000F073F800BF80BD00BF78000020D3
:102688000010014080B500AF114B124A1A60104B80
:102698004FF4E1325A600E4B00229A600C4B002234
:1026A800DA600B4B00221A61094B0C225A61084B65
:1026B80000229A61064B0022DA610548FEF7C2FE45
:1026C8000346002B01D000F049F800BF80BD00BFD1
:1026D800E40000200044004080B588B000AF07F156
:1026E8000C0300221A605A609A60DA601A610023AB
:1026F800BB60184B1B6B174A43F080031363154BE1
:102708001B6B03F08003BB60BB6800237B60114B2D
:102718001B6B104A43F0010313630E4B1B6B03F052
:1027280001037B607B68002220210B48FEF71AFA20
:102738002023FB6001233B6100237B610023BB61F5
:1027480007F10C0319460448FEF78AF800BF203742
:10275800BD4680BD003802400000024080B400AF92
:1027680000BFBD465DF8047B7047000080B483B0AD
:1027780000AF00237B60104B5B6C0F4A43F480432F
:1027880053640D4B5B6C03F480437B607B680023D0
:102798003B60094B1B6C084A43F080531364064B9B
:1027A8001B6C03F080533B603B6800BF0C37BD4691
:1027B8005DF8047B704700BF0038024080B58CB0DC
:1027C80000AF786007F11C0300221A605A609A6013
:1027D800DA601A617B681B683A4A934235D1002354
:1027E800BB61394B5B6C384A43F010035364364B7A
:1027F8005B6C03F01003BB61BB6900237B61324B48
:102808001B6B314A43F0010313632F4B1B6B03F01F
:1028180001037B617B694FF4C063FB6102233B6268
:1028280000237B620323BB620723FB6207F11C03BF
:1028380019462648FEF714F8002200212520FDF746
:10284800B6FF2520FDF7CFFF38E07B681B68204ADC
:10285800934233D100233B611B4B1B6C1A4A43F450
:1028680000331364184B1B6C03F400333B613B6962
:102878000023FB60144B1B6B134A43F001031363E3
:10288800114B1B6B03F00103FB60FB680C23FB611E
:1028980002233B6200237B620323BB620723FB62A4
:1028A80007F11C0319460948FDF7DAFF0022002149
:1028B8002620FDF77CFF2620FDF795FF00BF303767
:1028C800BD4680BD001001400038024000000240B3
:1028D8000044004080B400AF00BFBD465DF8047BF3
:1028E800704780B400AFFEE780B400AFFEE780B465
:1028F80000AFFEE780B400AFFEE780B400AF00BFD2
:10290800BD465DF8047B704780B400AF00BFBD468C
:102918005DF8047B704780B400AF00BFBD465DF82A
:10292800047B704780B500AFFDF724FE00BF80BD73
:1029380080B500AF0248FEF767FF00BF80BD00BF4B
:102948007800002080B500AF0248FEF75DFF00BFA9
:1029580080BD00BFE400002080B400AF084BD3F86E
:102968008830074A43F47003C2F88830044B4FF0AC
:1029780000629A6000BFBD465DF8047B704700BFE7
:1029880000ED00E0DFF834D0002103E00C4B5B5889
:10299800435004310B480C4B42189A42F6D30B4A69
:1029A80002E0002342F8043B094B9A42F9D3FFF7AF
:1029B800D3FF00F011F8FFF723FD70470000022055
:1029C800882A0008000000200C0000200C000020CD
:1029D80028010020FEE7000070B50D4E0D4CA41B29
:1029E800A4100025A54209D10B4E0C4C00F020F88C
:1029F800A41BA4100025A54205D170BD56F82530AA
:102A080098470135EEE756F8253098470135F2E743
:102A1800802A0008802A0008802A0008842A0008E2
:102A280002440346934200D1704703F8011BF9E7BB
:102A3800F8B500BFF8BC08BC9E467047F8B500BFA3
:082A4800F8BC08BC9E46704773
:102A50004F6B650D0A0000004661696C0D0A0000AD
:102A6000000000000000000001020304060708093E
:082A7000000000000102030454
:082A780090D7FF7F0100000070
:042A8000BD0100088C
:042A840099010008AC
:0C2A880010000000010000000024F40019
:040000050800298D39
:00000001FF
